{
  "_format": "hh-sol-artifact-1",
  "contractName": "Transactions",
  "sourceName": "contracts/Transactions.sol",
  "abi": [
    {
      "inputs": [],
      "stateMutability": "nonpayable",
      "type": "constructor"
    },
    {
      "inputs": [
        {
          "internalType": "address",
          "name": "payee",
          "type": "address"
        },
        {
          "internalType": "address",
          "name": "owner",
          "type": "address"
        },
        {
          "internalType": "uint256",
          "name": "amount",
          "type": "uint256"
        }
      ],
      "name": "deposit",
      "outputs": [],
      "stateMutability": "payable",
      "type": "function"
    },
    {
      "inputs": [
        {
          "internalType": "address",
          "name": "",
          "type": "address"
        }
      ],
      "name": "deposits",
      "outputs": [
        {
          "internalType": "uint256",
          "name": "",
          "type": "uint256"
        }
      ],
      "stateMutability": "view",
      "type": "function"
    },
    {
      "inputs": [
        {
          "internalType": "address",
          "name": "payee",
          "type": "address"
        },
        {
          "internalType": "address",
          "name": "owner",
          "type": "address"
        }
      ],
      "name": "transact",
      "outputs": [],
      "stateMutability": "payable",
      "type": "function"
    },
    {
      "inputs": [
        {
          "internalType": "address",
          "name": "",
          "type": "address"
        }
      ],
      "name": "wid",
      "outputs": [
        {
          "internalType": "uint256",
          "name": "",
          "type": "uint256"
        }
      ],
      "stateMutability": "view",
      "type": "function"
    },
    {
      "inputs": [
        {
          "internalType": "address",
          "name": "payee",
          "type": "address"
        },
        {
          "internalType": "address",
          "name": "owner",
          "type": "address"
        }
      ],
      "name": "withdraw",
      "outputs": [],
      "stateMutability": "nonpayable",
      "type": "function"
    }
  ],
  "bytecode": "0x608060405234801561001057600080fd5b50600160008190555061086b806100286000396000f3fe60806040526004361061004a5760003560e01c80638340f5491461004f578063d531322c1461006b578063f940e38514610087578063fb1f75a4146100b0578063fc7e286d146100ed575b600080fd5b61006960048036038101906100649190610562565b61012a565b005b61008560048036038101906100809190610526565b610274565b005b34801561009357600080fd5b506100ae60048036038101906100a99190610526565b61028d565b005b3480156100bc57600080fd5b506100d760048036038101906100d291906104fd565b6104a3565b6040516100e49190610603565b60405180910390f35b3480156100f957600080fd5b50610114600480360381019061010f91906104fd565b6104bb565b6040516101219190610603565b60405180910390f35b6000606460018361013b91906106b6565b6101459190610685565b90508082600160008773ffffffffffffffffffffffffffffffffffffffff1673ffffffffffffffffffffffffffffffffffffffff16815260200190815260200160002054610193919061062f565b61019d9190610710565b600160008673ffffffffffffffffffffffffffffffffffffffff1673ffffffffffffffffffffffffffffffffffffffff1681526020019081526020016000208190555080600260008573ffffffffffffffffffffffffffffffffffffffff1673ffffffffffffffffffffffffffffffffffffffff1681526020019081526020016000205461022b919061062f565b600260008573ffffffffffffffffffffffffffffffffffffffff1673ffffffffffffffffffffffffffffffffffffffff1681526020019081526020016000208190555050505050565b61027f82823461012a565b610289828261028d565b5050565b600260005414156102d3576040517f08c379a00000000000000000000000000000000000000000000000000000000081526004016102ca906105e3565b60405180910390fd5b60026000819055506000600160008473ffffffffffffffffffffffffffffffffffffffff1673ffffffffffffffffffffffffffffffffffffffff1681526020019081526020016000205490506000600260008473ffffffffffffffffffffffffffffffffffffffff1673ffffffffffffffffffffffffffffffffffffffff1681526020019081526020016000205490506000821161037057600080fd5b6000811161037d57600080fd5b6000600160008673ffffffffffffffffffffffffffffffffffffffff1673ffffffffffffffffffffffffffffffffffffffff168152602001908152602001600020819055508373ffffffffffffffffffffffffffffffffffffffff166108fc839081150290604051600060405180830381858888f19350505050158015610408573d6000803e3d6000fd5b506000600260008573ffffffffffffffffffffffffffffffffffffffff1673ffffffffffffffffffffffffffffffffffffffff168152602001908152602001600020819055508273ffffffffffffffffffffffffffffffffffffffff166108fc829081150290604051600060405180830381858888f19350505050158015610494573d6000803e3d6000fd5b50505060016000819055505050565b60026020528060005260406000206000915090505481565b60016020528060005260406000206000915090505481565b6000813590506104e281610807565b92915050565b6000813590506104f78161081e565b92915050565b60006020828403121561050f57600080fd5b600061051d848285016104d3565b91505092915050565b6000806040838503121561053957600080fd5b6000610547858286016104d3565b9250506020610558858286016104d3565b9150509250929050565b60008060006060848603121561057757600080fd5b6000610585868287016104d3565b9350506020610596868287016104d3565b92505060406105a7868287016104e8565b9150509250925092565b60006105be601f8361061e565b91506105c9826107de565b602082019050919050565b6105dd81610776565b82525050565b600060208201905081810360008301526105fc816105b1565b9050919050565b600060208201905061061860008301846105d4565b92915050565b600082825260208201905092915050565b600061063a82610776565b915061064583610776565b9250827fffffffffffffffffffffffffffffffffffffffffffffffffffffffffffffffff0382111561067a57610679610780565b5b828201905092915050565b600061069082610776565b915061069b83610776565b9250826106ab576106aa6107af565b5b828204905092915050565b60006106c182610776565b91506106cc83610776565b9250817fffffffffffffffffffffffffffffffffffffffffffffffffffffffffffffffff048311821515161561070557610704610780565b5b828202905092915050565b600061071b82610776565b915061072683610776565b92508282101561073957610738610780565b5b828203905092915050565b600061074f82610756565b9050919050565b600073ffffffffffffffffffffffffffffffffffffffff82169050919050565b6000819050919050565b7f4e487b7100000000000000000000000000000000000000000000000000000000600052601160045260246000fd5b7f4e487b7100000000000000000000000000000000000000000000000000000000600052601260045260246000fd5b7f5265656e7472616e637947756172643a207265656e7472616e742063616c6c00600082015250565b61081081610744565b811461081b57600080fd5b50565b61082781610776565b811461083257600080fd5b5056fea264697066735822122048deb4326a4b7c004368fd3a2acca70ca6e2904823c945a0b2d4f013ed28eeca64736f6c63430008040033",
  "linkReferences": {},
  "deployedLinkReferences": {}
}