{
  "_format": "hh-sol-artifact-1",
  "contractName": "Transactions",
  "sourceName": "contracts/Transactions.sol",
  "abi": [
    {
      "inputs": [],
      "stateMutability": "nonpayable",
      "type": "constructor"
    },
    {
      "inputs": [
        {
          "internalType": "address",
          "name": "payee",
          "type": "address"
        },
        {
          "internalType": "address",
          "name": "owner",
          "type": "address"
        },
        {
          "internalType": "uint256",
          "name": "amount",
          "type": "uint256"
        }
      ],
      "name": "deposit",
      "outputs": [],
      "stateMutability": "payable",
      "type": "function"
    },
    {
      "inputs": [
        {
          "internalType": "address",
          "name": "",
          "type": "address"
        }
      ],
      "name": "deposits",
      "outputs": [
        {
          "internalType": "uint256",
          "name": "",
          "type": "uint256"
        }
      ],
      "stateMutability": "view",
      "type": "function"
    },
    {
      "inputs": [
        {
          "internalType": "address",
          "name": "payee",
          "type": "address"
        },
        {
          "internalType": "address",
          "name": "owner",
          "type": "address"
        }
      ],
      "name": "transact",
      "outputs": [],
      "stateMutability": "payable",
      "type": "function"
    },
    {
      "inputs": [
        {
          "internalType": "address",
          "name": "",
          "type": "address"
        }
      ],
      "name": "wid",
      "outputs": [
        {
          "internalType": "uint256",
          "name": "",
          "type": "uint256"
        }
      ],
      "stateMutability": "view",
      "type": "function"
    },
    {
      "inputs": [
        {
          "internalType": "address",
          "name": "payee",
          "type": "address"
        },
        {
          "internalType": "address",
          "name": "owner",
          "type": "address"
        }
      ],
      "name": "withdraw",
      "outputs": [],
      "stateMutability": "nonpayable",
      "type": "function"
    }
  ],
  "bytecode": "0x608060405234801561001057600080fd5b50336000806101000a81548173ffffffffffffffffffffffffffffffffffffffff021916908373ffffffffffffffffffffffffffffffffffffffff16021790555061077e806100606000396000f3fe60806040526004361061004a5760003560e01c80638340f5491461004f578063d531322c1461006b578063f940e38514610087578063fb1f75a4146100b0578063fc7e286d146100ed575b600080fd5b610069600480360381019061006491906104f2565b61012a565b005b610085600480360381019061008091906104b6565b610274565b005b34801561009357600080fd5b506100ae60048036038101906100a991906104b6565b61028d565b005b3480156100bc57600080fd5b506100d760048036038101906100d2919061048d565b610433565b6040516100e49190610550565b60405180910390f35b3480156100f957600080fd5b50610114600480360381019061010f919061048d565b61044b565b6040516101219190610550565b60405180910390f35b6000606460018361013b91906105f2565b61014591906105c1565b90508082600160008773ffffffffffffffffffffffffffffffffffffffff1673ffffffffffffffffffffffffffffffffffffffff16815260200190815260200160002054610193919061056b565b61019d919061064c565b600160008673ffffffffffffffffffffffffffffffffffffffff1673ffffffffffffffffffffffffffffffffffffffff1681526020019081526020016000208190555080600260008573ffffffffffffffffffffffffffffffffffffffff1673ffffffffffffffffffffffffffffffffffffffff1681526020019081526020016000205461022b919061056b565b600260008573ffffffffffffffffffffffffffffffffffffffff1673ffffffffffffffffffffffffffffffffffffffff1681526020019081526020016000208190555050505050565b61027f82823461012a565b610289828261028d565b5050565b6000600160008473ffffffffffffffffffffffffffffffffffffffff1673ffffffffffffffffffffffffffffffffffffffff1681526020019081526020016000205490506000600260008473ffffffffffffffffffffffffffffffffffffffff1673ffffffffffffffffffffffffffffffffffffffff1681526020019081526020016000205490506000600160008673ffffffffffffffffffffffffffffffffffffffff1673ffffffffffffffffffffffffffffffffffffffff168152602001908152602001600020819055508373ffffffffffffffffffffffffffffffffffffffff166108fc839081150290604051600060405180830381858888f193505050501580156103a0573d6000803e3d6000fd5b506000600260008573ffffffffffffffffffffffffffffffffffffffff1673ffffffffffffffffffffffffffffffffffffffff168152602001908152602001600020819055508273ffffffffffffffffffffffffffffffffffffffff166108fc829081150290604051600060405180830381858888f1935050505015801561042c573d6000803e3d6000fd5b5050505050565b60026020528060005260406000206000915090505481565b60016020528060005260406000206000915090505481565b6000813590506104728161071a565b92915050565b60008135905061048781610731565b92915050565b60006020828403121561049f57600080fd5b60006104ad84828501610463565b91505092915050565b600080604083850312156104c957600080fd5b60006104d785828601610463565b92505060206104e885828601610463565b9150509250929050565b60008060006060848603121561050757600080fd5b600061051586828701610463565b935050602061052686828701610463565b925050604061053786828701610478565b9150509250925092565b61054a816106b2565b82525050565b60006020820190506105656000830184610541565b92915050565b6000610576826106b2565b9150610581836106b2565b9250827fffffffffffffffffffffffffffffffffffffffffffffffffffffffffffffffff038211156105b6576105b56106bc565b5b828201905092915050565b60006105cc826106b2565b91506105d7836106b2565b9250826105e7576105e66106eb565b5b828204905092915050565b60006105fd826106b2565b9150610608836106b2565b9250817fffffffffffffffffffffffffffffffffffffffffffffffffffffffffffffffff0483118215151615610641576106406106bc565b5b828202905092915050565b6000610657826106b2565b9150610662836106b2565b925082821015610675576106746106bc565b5b828203905092915050565b600061068b82610692565b9050919050565b600073ffffffffffffffffffffffffffffffffffffffff82169050919050565b6000819050919050565b7f4e487b7100000000000000000000000000000000000000000000000000000000600052601160045260246000fd5b7f4e487b7100000000000000000000000000000000000000000000000000000000600052601260045260246000fd5b61072381610680565b811461072e57600080fd5b50565b61073a816106b2565b811461074557600080fd5b5056fea2646970667358221220f3e5229a278edba7fa590c76b451fdd6ac7107de856ab4660568056ba3c7aa7a64736f6c63430008040033",
  "linkReferences": {},
  "deployedLinkReferences": {}
}